:100000000C9462000C94C10E0C94C10E0C94C10EA1
:100010000C94C10E0C94C10E0C94C10E0C94C10E24
:100020000C94C10E0C94C10E0C94C10E0C94C10E14
:100030000C948B0E0C94C10E0C94C10E0C94C10E3A
:100040000C94C10E0C94C10E0C94C10E0C94C10EF4
:100050000C94C10E0C94C10E0C94C10E0C94C10EE4
:100060000C94C10E0C94C10E0C94C10E0C94C10ED4
:100070000C94C10E0C94C10E0C94C10E0C94C10EC4
:100080000C94C10E0C94C10E0C94C10E0C94C10EB4
:100090000C94C10E0C94C10E0C94C10E0C94C10EA4
:1000A0001C041C044B04500466041C041C044B0474
:1000B00050042800388380388338840019FF38843E
:1000C000388A800011241FBECFEFCDBFDFE3DEBF33
:1000D000E2EBF0E040E017C0B591A5913591259194
:1000E000059107FD0CC095918591EF01F92FE82F3F
:1000F00005900D92A217B307D9F7FE0104C01D9217
:10010000A217B307E1F7E33CF40731F70E947D0C37
:080110000C948A00F894FFCF63
:100118004F925F926F927F928F929F92AF92BF920F
:10012800CF92DF92EF92FF920F93CF93DF934C0120
:100138006B015A012901CA010E94DE0A3C01892B80
:1001480009F408C188E290E00E94DE0AEC01892BDC
:1001580059F06F8A788E81E0A81AB1086A0C7B1C66
:10016800C114D10429F420C0C3010E94C30EF2C0F7
:10017800D6018C91898F8C918823A1F0AE01465EBF
:100188005F4FF6013196B8E0CB0ED11CCF0121911B
:10019800DA012D93AD01DC018C91882319F0EC155F
:1001A800FD05A1F718A201C0198E043008F003E07C
:1001B8000E8B09A31AA26E01B2E0CB0ED11CC601A8
:1001C8000E94B60ECE010C960E94B60EC887D9873B
:1001D80084E090E0801B91098C879D87CA8BDB8B1C
:1001E80084E0FE01B396DF011D928A95E9F71FA20C
:1001F800A201B401C3010E943B0E88839983E114D4
:10020800F10419F0F701C083D1830FB6F8940F9267
:10021800809189388F5F8093893880917238909166
:100228007338892BA9F5C0937238D09373388091AD
:1002380089388130E9F58CE098E30E944C0E85E11D
:1002480098E30E944C0E8EE198E30E944C0E87E2E0
:1002580098E30E944C0E8BE498E30E944C0E82E4D3
:1002680098E30E944C0E89E398E30E944C0E80E3C9
:1002780098E30E944C0E8BE498E380937038909337
:10028800713882E498E380936E3890936F3810C089
:100298008091873881110CC0E0917238F0917338E1
:1002A80096898E89891720F0C0937238D093733855
:1002B800809184388F5F809384388E8990918838B4
:1002C800981710F48093883890E0FC01EE0FFF1F18
:1002D800EE0FFF1FEE0FFF1F8E0F9F1FFC01E45F45
:1002E800F74C0180F281E02DEC83FD8384819581B8
:1002F8008E839F83A481B5811296CD92DC92139749
:10030800C482D582EE89F0E0CF01880F991F880F4B
:10031800991F880F991FE80FF91FE45FF74CEA87C8
:10032800FB8780818F5F80830F900FBE8091873815
:10033800882361F0E0917238F091733896898E893C
:10034800981730F40E94E70881E005C081E003C0F7
:1003580081E001C08FEFDF91CF910F91FF90EF9077
:10036800DF90CF90BF90AF909F908F907F906F90CD
:060378005F904F90089514
:10037E000F931F93CF93DF9380918238811102C127
:10038E00C0916C38D0916D388E010F5F1F4F009366
:10039E006C3810936D3801151105B9F480917038D1
:1003AE009091713820916E3830916F38209370385B
:1003BE003093713880936E3890936F388091853872
:1003CE008F5F809385380E94CC0D80916838909114
:1003DE0069380817190710F480E0B8C080E0E09182
:1003EE007038F09171389081911107C02FEF3FEF67
:1003FE002093683830936938A9C0E0917038F09135
:10040E0071380580F681E02D0680F781E02D22817E
:10041E0033810217130728F4209368383093693814
:10042E0095C0A285B3852481358146815781E90126
:10043E004C835D832681378144815581E9014A834E
:10044E005B83AF014E5F5F4F11962D913C911297DA
:10045E002417350731F42681378111962D933C935D
:10046E001297128613869C9191509C93A489B589FC
:10047E00109719F12685378560897189E9016C839A
:10048E007D832089318966857785E9016A837B833F
:10049E0011966D917C9112979F01245F3F4F6217C9
:1004AE00730731F42089318911962D933C9312975D
:1004BE00148A158A9C9191509C9326899091883824
:1004CE00921710F42093883830E0D901AA0FBB1F81
:1004DE00AA0FBB1FAA0FBB1F2A0F3B1FD901A45F78
:1004EE00B74C11960D90BC91A02DA483B583149694
:1004FE002D913C9115972683378314962D913C911F
:10050E001597E9014A835B8314964D935C93159777
:10051E00A689B0E09D01220F331F220F331F220F39
:10052E00331FA20FB31FA45FB74CA287B3879C9152
:10053E009F5F9C93A0917238B0917338268956961E
:10054E009C91291708F44BCF81E049CFE091723886
:10055E00F0917338268930E0F901EE0FFF1FEE0F90
:10056E00FF1FEE0FFF1F2E0F3F1FF901E45FF74C29
:10057E009081923008F081E090918638992361F055
:10058E0081E00AC080916A3890916B380196809311
:10059E006A3890936B3880E0DF91CF911F910F9165
:0205AE000895AE
:1005B0001F93CF93DF930FB6F8940F9280918238F8
:1005C000815080938238809182388111C6C0809199
:1005D000893881119BC0C4C0DB011596ED91FC9157
:1005E00016970680F781E02DA489B58986859785C1
:1005F00020893189EC012C833D838089918926856E
:100600003785EC012A833B83CF010C9611962D91FF
:100610003C9112972817390731F4808991891196F6
:100620008D939C931297148A158A8C9181508C9388
:10063000A285B3858481958126813781EC012C8345
:100640003D838681978124813581EC012A833B8318
:100650009F012E5F3F4F11968D919C9112978217AB
:10066000930731F48681978111968D939C9312970D
:10067000128613868C9181508C938689909188384C
:10068000981710F48093883890E0DC01AA0FBB1F04
:10069000AA0FBB1FAA0FBB1F8A0F9B1FDC01A45F01
:1006A000B74C11960D90BC91A02DA483B5831496E0
:1006B0008D919C9115978683978314968D919C912B
:1006C0001597EC012A833B8314962D933C93159741
:1006D000A689B0E0CD01880F991F880F991F880F58
:1006E000991FA80FB91FA45FB74CA287B3878C913D
:1006F0008F5F8C93A0917238B0917338968956961B
:100700008C91981740F04093863805C0E0E0F0E007
:1007100069E378E341E0DB018C9181115DCFEF2B40
:1007200011F00E94CC0DC0916A38D0916B3820979F
:1007300061F011E00E94BF0181111093863821976A
:10074000C9F710926A3810926B38809186388823E6
:1007500031F00E94E70881E003C080E001C080E042
:0C0760000F900FBEDF91CF911F91089504
:10076C00CF93DF93CDB7DEB72697CDBFDEBFCE01DB
:10077C0001965C01082F1B2DE0917C38F0917D389F
:10078C008081882309F4B3C00580F681E02DE080D8
:10079C00F1800E94AA0EC5010E945D0A6C0189813C
:1007AC0081111BC0CE14DF0438F00E94D802B601B0
:1007BC00C7010E94AB0C8EC040E0B7016C197D09DB
:1007CC0080917838909179380E94AF0D0E94D802B0
:1007DC00811180C00E94E7087DC00E94D8027AC0B7
:1007EC00898188230CF476C0EC80FD80D7011A96A1
:1007FC008D919C911B97892B21F0C70102960E9429
:10080C00000DCE0106960E945D0A6C01E9818E2FC7
:10081C00EE0F990BAA0BBB0BFC013197E930F105DC
:10082C0008F058C0E05BFF4F0C94B00EF7018289C2
:10083C008160828B2A813B8164857585620F731F71
:10084C00A601C7010E941F0C882309F443C0D701DD
:10085C0052968C91529782FF0DC06A817B811C96B7
:10086C008D919C911D97680F791FA601C7010E945D
:10087C00270D03C08E7FF701828BD7015096ED9127
:10088C00FC915197C701099525C0F70182898E7F8C
:10089C00828B20C0D70152968C91529781605296D0
:1008AC008C9352976A817B811C966D937C931D97D8
:1008BC006C0D7D1D9601A601C7010E941F0C0AC07C
:1008CC00F701828981FD04C0C7010E94C30E02C0DA
:1008DC008E7F828B40E050E0602F712F80917838B2
:1008EC00909179380E94EB0581117ACF45CF0E9407
:1008FC00AA0EC5010E945D0A6C01898181116DCF20
:10090C00E0917A38F0917B38808141E0811140E0B0
:06091C00E12CF12C52CF8A
:10092200CF93DF93DC011596ED91FC91169706802B
:10093200F781E02DA489B589C685D78580899189FB
:100942008C839D83C089D189868597858A839B8381
:100952009F01245F3F4F11968D919C9112978217B0
:10096200930731F48089918911968D939C93129704
:10097200148A158A8C9181508C93809182388111CE
:1009820060C0A285B385C481D581868197818C831D
:100992009D83C681D781848195818A839B839F01B0
:1009A2002E5F3F4F11968D919C911297821793075C
:1009B20031F48681978111968D939C9312971286BA
:1009C20013868C9181508C938689909188389817E0
:1009D20010F48093883890E0DC01AA0FBB1FAA0FA5
:1009E200BB1FAA0FBB1F8A0F9B1FDC01A45FB74C62
:1009F20011960D90BC91A02DA483B58314968D9170
:100A02009C911597868397831496CD91DC911597C7
:100A12002A833B8314962D933C931597A689B0E0C5
:100A2200CD01880F991F880F991F880F991FA80F52
:100A3200B91FA45FB74CA287B3878C918F5F8C9349
:100A42001CC049E358E3DA011196CD91DC9112976B
:100A5200C687D7878C819D81808B918B8C819D816C
:100A6200DC0112962D933C9313972C833D83448B88
:100A7200558BDA018C918F5F8C93A0917238B09173
:100A82007338968956968C91891720F481E0809369
:0C0A9200863801C080E0DF91CF9108950C
:100A9E00AF92BF92CF92DF92EF92FF920F931F937E
:100AAE00CF93DF93CDB7DEB72597CDBFDEBF8C01D9
:100ABE006B014C835D83A22EB12C7C0188E0E80E85
:100ACE00F11C0FB6F8940F92F801928D838D981742
:100ADE0018F0F2E0AF1219C04A2DB601C8010E94FB
:100AEE002C08F8019189992349F0C80141960E947A
:100AFE009104882331F00E94E70803C081110E94FF
:100B0E00E7080F900FBE81E051C08C819D81892B2B
:100B1E0021F40F900FBE80E049C0B11006C0CE0187
:100B2E0001960E94650EBB24B3940F900FBE0E94D7
:100B3E00AA0E0FB6F8940F92F801858D8F3F09F427
:100B4E00158EF801868D8F3F09F4168E0F900FBE0D
:100B5E00BE016C5F7F4FCE0101960E94180B811172
:100B6E001FC00FB6F8940F92F801928D0F900FBE22
:100B7E00838D98130FC06C817D81C7010E94290E51
:100B8E00C8010E9440090E94D80281119ACF0E948A
:100B9E00E70897CFC8010E9440090E94D80291CF62
:100BAE00C8010E9440090E94D80280E02596CDBF60
:100BBE00DEBFDF91CF911F910F91FF90EF90DF90ED
:080BCE00CF90BF90AF90089595
:100BD600AF92BF92CF92DF92EF92FF920F931F9345
:100BE600CF93DF93CDB7DEB72597CDBFDEBF8C01A0
:100BF6005B014C835D83E12C6C0181E1C80ED11C45
:100C06000FB6F8940F92F801F28CFF20A9F0B50107
:100C1600C8010E94E80DFA94F801F28E80858823B7
:100C260039F0C80108960E94910481110E94E708D4
:100C36000F900FBE81E052C08C819D81892B21F4DB
:100C46000F900FBE80E04AC0E11006C0CE010196AB
:100C56000E94650EEE24E3940F900FBE0E94AA0E2A
:100C66000FB6F8940F92F801858D8F3F09F4158E13
:100C7600F801868D8F3F09F4168E0F900FBEBE01C8
:100C86006C5F7F4FCE0101960E94180B81111AC02E
:100C9600C8010E945A0E882379F06C817D81C601B5
:100CA6000E94290EC8010E9440090E94D8028111A3
:100CB600A7CF0E94E708A4CFC8010E9440090E945E
:100CC600D8029ECFC8010E9440090E94D802C801DE
:100CD6000E945A0E882309F493CF80E02596CDBF53
:100CE600DEBFDF91CF911F910F91FF90EF90DF90C4
:080CF600CF90BF90AF9008956C
:100CFE00FF920F931F93CF93DF93EC01F62E00918B
:100D0E006C3810916D3880917238909173380296CC
:100D1E000E94000DCF3F8FEFD807B1F5FF20A1F154
:100D2E00E0E3F8E3A181B281C0917238D0917338BB
:100D3E00AC83BD83C0917238D091733814968D9167
:100D4E009C9115978E839F831496CD91DC91159768
:100D5E00809172389091733802968A839B8380912A
:100D6E00723890917338029614968D939C931597C2
:100D7E00A0917238B09173381A96ED93FC931B972D
:100D8E0080818F5F80832FC0C00FD11FE09172389A
:100D9E00F0917338C283D383C017D10768F4609182
:100DAE0072387091733880916E3890916F386E5F93
:100DBE007F4F0E94BE0B17C06091723870917338CE
:100DCE0080917038909171386E5F7F4F0E94BE0B8C
:100DDE008091683890916938C817D90720F4C0936C
:100DEE006838D0936938DF91CF911F910F91FF90A2
:020DFE00089556
:100E000080918238882321F081E08093863808958C
:100E10001092863820918838822F90E0FC01EE0FE6
:100E2000FF1FEE0FFF1FEE0FFF1FE80FF91FE45F1C
:100E3000F74C3081311111C02150822F90E0FC011C
:100E4000EE0FFF1FEE0FFF1FEE0FFF1FE80FF91F42
:100E5000E45FF74C3081332379F3AC01440F551F25
:100E6000440F551F440F551F480F591FDA01A45F47
:100E7000B74C1196ED91FC9112970280F381E02D11
:100E80001196ED93FC931297415F574CE417F507C9
:100E900029F442815381FD0141835283FC01EE0F0D
:100EA000FF1FEE0FFF1FEE0FFF1F8E0F9F1FFC0196
:100EB000E45FF74C0180F281E02D86819781809379
:0C0EC0007238909373382093883808959E
:100ECC00EF92FF920F931F93CF93DF93FC01362F7A
:100EDC00892B09F44CC0238D222309F44AC0022F1C
:100EEC0010E0448DE42EF12C8FEF9FEFB8010E949F
:100EFC00020E6E157F0508F43EC0EF010FB6F89494
:100F0C000F9260817181CB01249F800D911D112462
:100F1C0084839583128E62837383015011090E9D15
:100F2C00C0010F9D900D1E9D900D1124860F971FD3
:100F3C00868397838FEF858F868F31110CC08085C8
:100F4C00882389F0CF0108960E949104882359F0D8
:100F5C000E94E70808C0CF0108960E944C0ECE01F3
:100F6C0041960E944C0E0F900FBE81E005C080E0B0
:100F7C0003C080E001C080E0DF91CF911F910F9101
:060F8C00FF90EF900895B4
:100F92000F931F93CF93DF93FC01892B09F451C068
:100FA20082A1815082A3268991A1291709F44BC0FD
:100FB20081114BC0EF018F010E5F1F4FC8010E94CC
:100FC200000D89A18E8B24E030E0281B31092C878B
:100FD2003D8790918838981710F48093883890E074
:100FE200FC01EE0FFF1FEE0FFF1FEE0FFF1F8E0F14
:100FF2009F1FFC01E45FF74C0180F281E02DEC833E
:10100200FD83848195818E839F83A481B58112960D
:101012000D931C93139704831583EE89F0E0CF019F
:10102200880F991F880F991F880F991FE80FF91FC2
:10103200E45FF74CEA87FB8780818F5F808381E0E2
:1010420005C080E003C080E001C080E0DF91CF9165
:061052001F910F910895AB
:101058000F931F93CF93DF93EC01042F1A8D4C8DC0
:1010680041110CC088819981892B09F042C08C817B
:101078009D810E94C9071C821D8242C0011117C0B0
:1010880050E08A819B810E947A0E2C8D8A819B81F7
:10109800820F911D8A839B832C813D818217930740
:1010A80050F1888199818A839B8380E029C050E030
:1010B8008E819F810E947A0E8C8D90E0919581950A
:1010C80091092E813F81280F391F2E833F83488144
:1010D80059812417350730F42C813D81820F931FE5
:1010E8008E839F83023049F4112349F0115080E028
:1010F80007C080E005C080E003C080E001C080E058
:0E1108001F5F1A8FDF91CF911F910F910895F5
:101116000F920FB6F8940F921F9211242F923F92BE
:101126004F925F926F927F928F929F92AF92BF92F1
:10113600CF92DF92EF92FF920F931F932F933F93DD
:101146004F935F936F937F938F939F93AF93BF93C9
:10115600CF93DF93EF93FF93A0917238B0917338DA
:101166000DB60D920EB60D920E94BF0181110E941E
:101176000007A0917238B0917338CD91CDBFDD9143
:10118600DEBFFF91EF91DF91CF91BF91AF919F911C
:101196008F917F916F915F914F913F912F911F9109
:1011A6000F91FF90EF90DF90CF90BF90AF909F9000
:1011B6008F907F906F905F904F903F902F901F90F1
:0811C6000F900FBE0F90189569
:1011CE000F920FB6F8940F921F9211242F923F9206
:1011DE004F925F926F927F928F929F92AF92BF9239
:1011EE00CF92DF92EF92FF920F931F932F933F9325
:1011FE004F935F936F937F938F939F93AF93BF9311
:10120E00CF93DF93EF93FF93A0917238B091733821
:10121E000DB60D920EB60D920E940007A091723877
:10122E00B0917338CD91CDBFDD91DEBFFF91EF91BF
:10123E00DF91CF91BF91AF919F918F917F916F91E0
:10124E005F914F913F912F911F910F91FF90EF90D2
:10125E00DF90CF90BF90AF909F908F907F906F90C8
:10126E005F904F903F902F901F900F900FBE0F905A
:02127E000895D1
:10128000EF92FF920F931F93CF938C010FB6F894B8
:101290000F92FC01C68D1C16ACF48189811106C029
:1012A00011C0F8018189811105C00CC07801F1E1FC
:1012B000EF0EF11CC7010E94910481110E94BA0E29
:1012C000C15079F78FEFF801868F0F900FBE0FB6E0
:1012D000F8940F92C58D1C16ACF48085811106C060
:1012E00011C0F8018085811105C00CC07801F8E0BB
:1012F000EF0EF11CC7010E94910481110E94BA0EE9
:10130000C15079F78FEFF801858F0F900FBECF9105
:0A1310001F910F91FF90EF900895D8
:10131A000F931F93CF93DF93FC018B01A181B281BD
:10132A008091723890917338EC01AE87BF878091B3
:10133A0072389091733814962D913C911597EC015F
:10134A00288B398B14968D919C9115972091723820
:10135A0030917338245F3F4FEC012A833B832091FD
:10136A00723830917338245F3F4F14962D933C9313
:10137A001597A0917238B09173385496ED93FC93F7
:10138A00559790819F5F9083442311F00FEF1FEFD1
:10139A00642FC8010E947F06DF91CF911F910F91A0
:0213AA000895A4
:1013AC006115710509F440C0209102283091032881
:1013BC008217930779F4E0E0F0E005C0E1E0F0E09B
:1013CC0002C0E1E0F0E0EE0FFF1FEE0FFF1FE05058
:1013DC00F84D12C02091002830910128232BE1F404
:1013EC0020910628309107288217930739F3E0E003
:1013FC00F8E202C0E4E0F8E23097B1F06083718368
:10140C008283938308952091042830910528232BFF
:10141C0089F3E0E0F0E0F0CF209106283091072826
:0A142C008217930771F2EFCF0895C5
:101436000F931F93CF93DF93282F362F882361F1C5
:10144600682F70E08FEF9FEF0E94020E832F90E0CF
:101456006817790720F1239FC0011124813E4FEFC1
:10146600940700F5D32FC22F4F960E94DE0A8C01F7
:101476000097D1F0D11104C0FC018083918304C090
:101486004F96F80180839183F801C38FD48F61E072
:10149600C8010E94660708C000E010E005C000E031
:1014A60010E002C000E010E0C801DF91CF911F916B
:0414B6000F910895F5
:1014BA000F931F93CF93DF938C010E94700EEC0160
:1014CA008091743890917538C817D90738F5E0912A
:1014DA007C38F0917D388081882381F00580F681FF
:1014EA00E02D6FEF7FEF808191810E94AB0CE0913C
:1014FA007C38F0917D3880818111F0CF80917A38E3
:10150A0090917B3880937C3890937D38E0937A3839
:10151A00F0937B3881E0F801808302C0F8011082E1
:10152A00C0937438D0937538CE01DF91CF911F9153
:04153A000F91089570
:10153E00CF93DF93CDB7DEB72D97CDBFDEBFE0EAF9
:10154E00F4E080E2818385838FEF809341048BE00A
:10155E00ECEAF9E5DE01119601900D928A95E1F71C
:10156E0000E414E0FF24FA94809108289091092851
:10157E0040E050E0BE01645F7F4F0E94EB0581307A
:10158E0099F78C859D858A30910560F4F801F68275
:10159E00E1E0F0E0EC0FFD1FE80FF91F8081F8018C
:0E15AE008583E2CFF801F6828B858583DDCF41
:1015BC00CF93DF93EC010E94AA0E80917E3890911C
:1015CC007F38892B31F48CE098E280937E389093AD
:1015DC007F382097C9F080918038909181389E0196
:1015EC00280F391F2F3F4FE0340788F482179307D9
:1015FC0088F4C0917E38D0917F38C80FD91F2093C2
:10160C0080383093813808C0C0E0D0E005C0C0E01D
:10161C00D0E002C0C0E0D0E00E94D802CE01DF9141
:04162C00CF910895BD
:10163000CF93DF930FB6F8940F9220916C383091CE
:101640006D38DB014D915C914F3FBFEF5B0719F1A6
:10165000EC01E981FA81A0918538B881BA1741F08F
:101660002E173F0728F0FB011082118281E014C081
:101670002E1B3F0B2417350748F4FB01421B530B6D
:10168000408351830E94650E80E006C0DB011D92FD
:101690001C9281E001C080E00F900FBEDF91CF91DE
:0216A0000895AB
:1016A200CF93DF9300D01F92CDB7DEB740E061E069
:1016B20085E00E941B0A809308289093092840E045
:1016C20061E085E00E941B0A80930A2890930B2810
:1016D2000E94930E8B8390E0C09789839A838091B6
:1016E20008289091092820E040E050E0BE016F5F99
:1016F2007F4F0E944F0580910A2890910B2820E08D
:1017020040E050E0BE016D5F7F4F0E944F05E0CF89
:10171200E0E8FAE080E197E28487958781E08583BB
:101722008083A0917238B0917338CD91CDBFDD9195
:10173200DEBFFF91EF91DF91CF91BF91AF919F916A
:101742008F917F916F915F914F913F912F911F9157
:101752000F91FF90EF90DF90CF90BF90AF909F904E
:101762008F907F906F905F904F903F902F901F903F
:0A1772000F900FBE0F900895089528
:10177C00CF93DF93EB01488159814F3F2FEF5207F5
:10178C0021F4FC01A781B0850DC0DC01139601C0CA
:10179C00DF011296ED91FC91139720813181421754
:1017AC005307B0F71296ED91FC911397EA83FB83E4
:1017BC00C483D583AC83BD831296CD93DC931397EE
:1017CC0088879987FC0120812F5F2083DF91CF913F
:0217DC0008956E
:1017DE00EF92FF920F930F2EF6E6EF2EF8E3FF2E09
:1017EE00F02D00E020E030E04EE650E06CE77DE5C5
:1017FE0083E89EE00E948C008130A1F40E944B0D84
:10180E00813081F4F8948FEF9FEF80936838909336
:10181E00693881E08093873810926C3810926D3859
:10182E000E94890B809183380F91FF90EF9008955D
:10183E00FC0162837383808791874617570790F068
:10184E00421B530B8485958548175907E0F4BF0159
:10185E006E5F7F4F80917A3890917B380E94BE0BDD
:10186E0080E008954217530718F46217730768F45F
:10187E00BF016E5F7F4F80917C3890917D380E94C2
:0E188E00BE0B80E0089581E0089581E008958A
:10189C000FB6F8940F928091783890917938892B03
:1018AC0019F58DE598E30E944C0E84E598E30E94AF
:1018BC004C0E8DE598E380937C3890937D3884E5CD
:1018CC0098E380937A3890937B3840E065E085E02C
:1018DC000E941B0A8093783890937938009721F0F6
:0E18EC0066E47DE50E94D6090F900FBE0895B8
:1018FA00EF92FF920F930E94160EE12CF12C00E05A
:10190A0020E030E04EE650E06AEE79E581E59BE0C2
:10191A000E948C0020E030E04EE650E061EF79E56D
:10192A008FE99AE00E948C0020E030E04EE650E019
:10193A0068EF79E58FE89DE00E948C000E94EF0B2A
:0C194A0080E090E00F91FF90EF90089576
:10195600EF92FF920F931F93CF93DF938C017B013E
:10196600E0917C38F0917D380580F681E02DC681C6
:10197600D781CE0102960E94000D8A8982FF06C099
:10198600A701B801CE010E94270D02C08E7F8A8B67
:10199600E889F989CE010995DF91CF911F910F91C1
:0619A600FF90EF90089590
:1019AC003F065B4F666D7D077F6F7956616C69648E
:1019BC002064696769742077617320656E74657241
:1019CC0065642E004572726F7221204E6F74206117
:1019DC002076616C69642064696769742E00726595
:1019EC0061646572006472697665720073656E6419
:0319FC0065720011
:0119FF0003E4
:101A0000CF93DF93FC01A085B185C281D38184810E
:101A100095818C839D83C481D581828193818A83C2
:101A20009B8311968D919C911297E817F90731F4D9
:101A30008481958111968D939C93129710861186BF
:0E1A40008C9181508C938C91DF91CF91089501
:101A4E00EF92FF920F931F93CF93DF93EC018B01D5
:101A5E007A0108C08C859D85080F191FE889F989C0
:101A6E00CE0109956C857D85600F711F9801A701C8
:101A7E00CE010E941F0C8111EDCFDF91CF911F91EE
:081A8E000F91FF90EF90089505
:101A9600EF92FF920F930E944E0C809178389091AE
:101AA6007938892B91F00F2EF6E7EF2EF8E3FF2E0B
:101AB600F02D03E020E030E04CED50E06BE47DE5F6
:101AC60086EB93E00E948C0001C080E00F91FF90AE
:041AD600EF900895F0
:101ADA00EF92FF920F931F93CF93DF938C017C01B8
:101AEA00C0E0D0E006C0F70181917F010E949B0E01
:101AFA002196F80101900020E9F73197E01BF10BDC
:101B0A00CE17DF0780F3DF91CF911F910F91FF90DE
:041B1A00EF900895AB
:101B1E00CF93DF931F92CDB7DEB780910A289091B5
:101B2E000B2840E050E0BE016F5F7F4F0E94EB0537
:101B3E00813099F7898180538A3028F487EB99E5B3
:101B4E000E946D0DEACF80ED99E50E946D0DE5CFF7
:101B5E00CF93DF93EC010FB6F8940F928D8D8F3FDC
:101B6E0009F41D8E8E8D8F3F09F41E8E0F900FBEC1
:101B7E008A8D811104C0CE0141960E948D09CE013D
:0A1B8E000E944009DF91CF910895F5
:101B9800E0917038F09171388081811107C08FEF22
:101BA8009FEF80936838909369380895E091703872
:101BB800F09171380580F681E02D808191818093C4
:081BC800683890936938089514
:101BD000FC01448D4423A9F050E026813781240F75
:101BE000351F26833783848195812817390720F094
:101BF0008081918186839783CB01668177810E9462
:041C00007A0E0895BB
:101C0400AA1BBB1B51E107C0AA1FBB1FA617B7071E
:101C140010F0A61BB70B881F991F5A95A9F780953A
:081C24009095BC01CD0108956B
:101C2C00E0E0F4E081E0818382E08283E0E0F8E0B0
:101C3C008DE695E080879187868180648683868196
:061C4C0080688683089504
:101C5200CF93DF93EB016091723870917338645FB8
:101C62007F4F0E94BE0B61E0CE010E947F06DF9192
:041C7200CF91089571
:101C7600FC0160833197708331971082319720E899
:101C860020833197108277974083319750838397CB
:021C96000895AF
:101C9800FC010396818392832FEF3FEF23833483E4
:0C1CA800858396838783908710820895BF
:101CB4000FB6F8940F92FC01928D0F900FBE81E045
:061CC400911180E008957B
:101CCA0020918538FC01208320916C3830916D3841
:061CDA002183328308950E
:101CE0000FB6F8940F9280916C3890916D380F90E8
:041CF0000FBE089586
:101CF400FB01DC0102C001900D9241505040D8F725
:021D0400089540
:101D0600CCE0D8E388818230E8F30E94E708FACF76
:101D16000F9301E00093860A0F910E948B08189595
:101D2600E0E0F8E084818823ECF7809100080895CC
:101D3600E0E0F8E0948195FFFDCF809302080895D6
:0D1D4600546D725100546D7220537663008D
:0C1D5400809182388F5F80938238089560
:0C1D6000EE0FFF1F0590F491E02D099498
:081D6C00FC01108611860895A8
:081D740081E080938638089598
:051D7C0049444C450044
:041D82000C940000BD
:021D86000895BE
:00000001FF
